:100000000C94EC000C9414010C9414010C94140145
:100010000C9414010C9414010C9414010C9414010C
:100020000C9414010C9414010C9479030C94EB03BC
:100030000C9414010C9414010C9414010C941401EC
:100040000C9414010C9414010C9414010C941401DC
:100050000C9414010C9414010C9414010C943D079D
:100060000C9414010C9414010C9414010C941401BC
:100070000C9414010C9414010C9414010C941401AC
:100080000C9414010C9414010C9414010C9414019C
:100090000C9487070C9414010C9414010C94140113
:1000A0000C9414010C9414010C9414014606490696
:1000B00038063C0640066A066A066A064D06510680
:1000C00055065B065F066A066506390C370C350C6B
:1000D000330C310C2F0C2D0C2B0C6F0C6D0C6B0C8E
:1000E000690C670C650C630C610C000000020009D0
:1000F0000F0000030401000C0000000000000000DD
:10010000000000000000000000080B0002020201D5
:10011000000904000001020200000524001001058E
:1001200024010101042402060524060001070581BB
:100130000310004009040100020A00000007050244
:100140000240000007058302400000040309041276
:10015000010002EF02014041233780000101020348
:100160000141726475696E6F204C4C4300417264AA
:1001700075696E6F204D6963726F00000000002585
:100180000028002B002E0031000000000024002772
:10019000002A002D003000040404040403040502B6
:1001A0000202020403020202020606060606060412
:1001B00004020202040404080201104080401020DE
:1001C000408040800802040180402010020110801D
:1001D000102040402000920C11241FBECFEFDAE027
:1001E000DEBFCDBF11E0A0E0B1E0EAEBF9E102C073
:1001F00005900D92A83AB107D9F722E0A8EAB1E03C
:1002000001C01D92AC3DB207E1F710E0CCEED0E0AA
:1002100004C02197FE010E94D50CCB3ED107C9F73F
:100220000E94460A0C94DB0C0C9400004091FA01E9
:100230005091FB012091F8013091F90142175307C9
:10024000B4F49091E8009570E1F39091E80092FD8C
:1002500019C08093F1008091FA019091FB01019601
:100260008F739927892B19F48EEF8093E800809182
:10027000FA019091FB0101969093FB018093FA01A2
:1002800081E0089580E00895CF92DF92EF92FF928F
:100290000F931F93CF93DF931F92CDB7DEB7182F25
:1002A000062FE42E862F880F8E5F99830E941601F9
:1002B00083E00E941601F12EC12E9981D92E8C2D3A
:1002C0008F19801798F4F601E7FE02C0849101C0EF
:1002D00080810E941601182F80E00E941601812360
:1002E000FFEFCF1ADF0A8111EACF01C081E00F9042
:1002F000DF91CF911F910F91FF90EF90DF90CF9002
:100300000895DF92EF92FF920F931F93CF93DF93A5
:10031000D82E8A017B01E40EF51EEB01CE15DF0518
:1003200071F0D7FE03C0FE01849101C088810E9454
:10033000160121968111F2CF8FEF9FEF01C0C80106
:10034000DF91CF911F910F91FF90EF90DF90089573
:10035000615030F02091F100FC0120830196F8CF2C
:10036000289A84E6809306020895CF92DF92EF9256
:10037000FF920F931F93CF93DF936C017A018B0150
:10038000C0E0D0E0CE15DF0589F0D8016D918D0178
:10039000D601ED91FC910190F081E02DC601099507
:1003A000892B11F47E0102C02196ECCFC701DF91A9
:1003B000CF911F910F91FF90EF90DF90CF90089514
:1003C000CF93DF931F92CDB7DEB76983DC01ED9148
:1003D000FC910280F381E02D41E050E0BE016F5FAF
:1003E0007F4F09950F90DF91CF91089583E080931F
:1003F000E9008091F200882319F08AE38093E800F5
:100400000895FC018485958597FD0BC09FB7F894EE
:1004100082E08093E9008091F2009FBF90E0019616
:1004200008959FB7F89482E08093E9008091F200EC
:100430009FBF90E008953FB7F8948091F4019091A8
:10044000F501A091F601B091F70126B5A89B05C072
:100450002F3F19F00196A11DB11D3FBFBA2FA92F43
:10046000982F8827820F911DA11DB11DBC01CD01C0
:1004700042E0660F771F881F991F4A95D1F70895AC
:1004800085ED8093BC008091BC0084FDFCCF109270
:100490004E0208954091CA01262F30E0240F311DED
:1004A00021323105DCF420914E022430C9F4FC01E4
:1004B00080E090E0861758F43091CA012191DC0168
:1004C000A855BE4FA30FB11D2C930196F3CF809179
:1004D000CA01680F6093CA0180E0089581E0089521
:1004E00082E008950895E091010280910002E817EA
:1004F00030F4F0E0E85FFD4F808190E008958FEFE9
:100500009FEF08959091010280910002981750F496
:10051000E92FF0E0E85FFD4F208130E09F5F90938E
:10052000010202C02FEF3FEFC90108958091000240
:1005300090E020910102821B91090895CF92DF92F1
:10054000EF92FF920F931F93CF93DF937C01262F9F
:10055000972F8A0180914F02882391F0C62FD72FC1
:100560006E01C40ED51ECC15DD0571F06991D70161
:10057000ED91FC910190F081E02DC7010995F3CF39
:10058000642F822F0E944A02C801DF91CF911F91F0
:100590000F91FF90EF90DF90CF900895CF93DF936E
:1005A0001F92CDB7DEB7698320914F022223D1F08D
:1005B00020917202203240F021E030E0FC013383D0
:1005C000228380E090E015C080915002E82FF0E097
:1005D000EF5AFD4F998190838F5F809350028093F3
:1005E000720205C061E0CE0101960E944A0281E0DC
:1005F00090E00F90DF91CF910895089580E090E012
:1006000008950F931F93CF93DF931F92CDB7DEB75B
:1006100082E0898342E450E069E071E080E80E9472
:1006200081010E94320ADC0112960D911C911397F0
:100630000115110569F0D801ED91FC910280F3815B
:10064000E02DBE016F5F7F4FC801099597FF07C07E
:1006500089810F90DF91CF911F910F910895F8013B
:1006600000851185E5CF0E94210A90E008950F933F
:100670001F93CF93DF931F92CDB7DEB78C01FC01A0
:100680008485958597FF0EC0CE0101960E94F709DB
:10069000019719F4298130E002C02FEF3FEFF801F4
:1006A00035872487F801848595850F90DF91CF9158
:1006B0001F910F910895CF93DF931F92CDB7DEB7AF
:1006C000FC018485958597FD05C02FEF3FEF3587A9
:1006D00024870BC0CE0101960E94F709019719F4F7
:1006E000898190E002C08FEF9FEF0F90DF91CF9153
:1006F00008951F920F920FB60F9211248F939F931C
:100700008091E1009091E100937F9093E10083FF5D
:100710000FC01092E90091E09093EB001092EC0072
:1007200092E39093ED001092070298E09093F0000E
:1007300082FF20C093E09093E9009091F20099230A
:1007400019F09AE39093E8009091FC01992339F015
:100750009091FC0191509093FC01992389F1909123
:100760000602992339F09091060291509093060267
:10077000992341F184FF10C08091E2008E7E816058
:100780008093E2008091E1008F7E8093E100809170
:10079000FE018E7E806111C080FF16C08091E20054
:1007A0008E7E80618093E2008091E1008E7E809356
:1007B000E1008091FE018E7E81608093FE0104C085
:1007C0005D98CDCF2898D6CF9F918F910F900FBE77
:1007D0000F901F9018951F920F920FB60F92112431
:1007E000CF92DF92EF92FF920F931F932F933F933D
:1007F0004F935F936F937F938F939F93AF93BF9329
:10080000EF93FF93CF93DF93CDB7DEB76C97DEBF47
:10081000CDBF1092E9008091E80083FFEDC168E050
:10082000CE0145960E94A80182EF8093E8008D8951
:1008300087FF05C09091E80090FFFCCF03C09EEFBA
:100840009093E800982F907609F0C6C09E892F8972
:10085000188D91110CC0803829F48091FF0180938C
:10086000F10002C01092F1001092F10048C1422F35
:1008700050E0512B913051F4811141C1413051056B
:1008800009F03DC18091FF018D7F0BC0933061F471
:10089000811135C14130510509F031C18091FF010D
:1008A00082608093FF012BC1953041F48091E80074
:1008B00080FFFCCF20682093E30021C1963009F02F
:1008C0005FC0EB8CFC8C1092E9001092FB0110923F
:1008D000FA01123091F51092F9011092F8010E947C
:1008E000010399E0BE016F5F7F4FDB01E92F1D928D
:1008F000EA95E9F799831A8391E09E8390EA9887B5
:100900009AEF99872091FA013091FB01275F3F4FC1
:100910003C832B838D831092E9001092FB0110928F
:10092000FA01F092F901E092F80149E050E080E02C
:100930000E9481010E940103E2C0F092F901E0925D
:10094000F8010E94320ADC011296ED90FC90139798
:10095000E114F10409F4C0C0D701ED91FC910480C9
:10096000F581E02DBE016B5E7F4FC70109950097B1
:1009700019F00CF0C4C0C7C0F701E084F184E8CFDF
:10098000973009F4C0C0983021F481E08093F100E1
:10099000B6C0993009F0B3C0837009F0B4C0EDE07F
:1009A000F1E081E021E036E39081992361F08093CA
:1009B000E9002093EB0091919093EC003093ED00CF
:1009C0008F5F873089F78EE78093EA001092EA0004
:1009D0008F898093070293C08B8D9C8D1092E900C4
:1009E0001092FB011092FA019093F9018093F801A3
:1009F000898D811156C08E899D89913A59F4813231
:100A000009F081C047E050E064E071E080E00E94BE
:100A1000810175C0913209F076C0833289F4888DE6
:100A200090E0982F88272F89822BA0E0B0E0809358
:100A3000000190930101A0930201B09303015FC0F4
:100A4000803269F48091E80082FFFCCF67E084E0A7
:100A500091E00E94A8018BEF8093E80006C08232EB
:100A600009F04DC08F8980930B018091FD0188238F
:100A700019F0EEEFFAE002C0E0E0F8E08091040146
:100A800090910501A0910601B0910701803B94402F
:100A9000A105B10509F07BC080910B0180FF93C0D7
:100AA00076C00E94320ADC0112960D911C911397B8
:100AB0000115110541F1D801ED91FC910190F081F2
:100AC000E02DBE016B5E7F4FC8010995811117C0F3
:100AD000F80100851185ECCF113009F44EC01330B8
:100AE00091F48F89882309F445C0823081F440E86D
:100AF0006DE08DE691E00E944401882321F08EEFA5
:100B00008093E80079C081E28093EB0075C081306A
:100B100029F440E86BE081E691E0EDCF833099F76E
:100B20000E94320ADC011296ED90FC9013978E0120
:100B30000F5F1F4F6801E114F10479F0D701ED91C7
:100B4000FC910680F781E02DB801C7010995080FD7
:100B5000111DF701E084F184EECFD8011C92F6015B
:100B600001900020E9F73197BF016C197D0940E041
:100B7000C601C1CF6BE471E002C06FE471E06115A2
:100B8000710509F2FB01449150E080E840CF0FB6B7
:100B9000F894A8958091600088618093600010921D
:100BA00060000FBEA895EE3F2AE0F20739F0809171
:100BB000FE0A9091FF0A91838083A1CF1092FF0AD1
:100BC0001092FE0A9CCFEE3F8AE0F80731F0808158
:100BD00091819093FF0A8093FE0A87E797E79183BC
:100BE00080839BE088E10FB6F894A895809360001D
:100BF0000FBE9093600083CF6C960FB6F894DEBF63
:100C00000FBECDBFDF91CF91FF91EF91BF91AF911B
:100C10009F918F917F916F915F914F913F912F9114
:100C20001F910F91FF90EF90DF90CF900F900FBE2C
:100C30000F901F901895362F90E0FC01E651FF4F62
:100C40004491FC01EA54FE4F2491FC01E956FE4F09
:100C50008491882309F451C04423E1F150E0FA0162
:100C60003197EF30F105B0F5EA5AFF4F0C94D50CEF
:100C7000909180009F7707C0909180009F7D03C076
:100C800090918000977F9093800024C094B59F77C7
:100C900002C094B59F7D94BD1DC0909190009F7738
:100CA00007C0909190009F7D03C090919000977F26
:100CB000909390000FC09091C0009F7703C09091D7
:100CC000C0009F7D9093C00005C09091C200977FA7
:100CD0009093C200E82FF0E0EE0FFF1FE558FE4FA3
:100CE000A591B4918FB7F894EC91311103C0209580
:100CF0002E2301C02E2B2C938FBF08958F929F928D
:100D0000AF92BF92CF92DF92EF92FF926B017C0184
:100D10000E941B024B015C01C114D104E104F104E7
:100D2000F1F00E941B02DC01CB0188199909AA0984
:100D3000BB09883E9340A105B10570F321E0C21ABA
:100D4000D108E108F10888EE880E83E0981EA11C06
:100D5000B11CC114D104E104F10419F7DDCFFF90F7
:100D6000EF90DF90CF90BF90AF909F908F900895BD
:100D70008F929F92AF92BF92CF92DF92EF92FF92AB
:100D80000F931F93CF93DF935C016B017A018091E6
:100D90000B01882309F45BC080910702882309F4C2
:100DA00056C08091FE0180FF05C08091E000826006
:100DB0008093E000E70110E00AEF83E0882E9AE3D9
:100DC000992E2097D9F10E94210A81110AC0015061
:100DD00009F43DC061E070E080E090E00E947E0692
:100DE000F0CF282F30E0C217D3070CF48C2F4FB769
:100DF000F8948092E9009091E80095FF1DC0282F9B
:100E000030E0C21BD30BF601982F915020F0819156
:100E10008093F100FACFC20ED31E112319F09092E5
:100E2000E80009C08091E80085FD06C09092E800C6
:100E300011E0209709F010E04FBFC3CF1111C3CFCD
:100E40005D9A84E68093FC011E141F0444F081E047
:100E500090E0F5019383828380E090E001C0C701B8
:100E6000DF91CF911F910F91FF90EF90DF90CF9086
:100E7000BF90AF909F908F9008951F920F920FB6E2
:100E80000F9211242F933F938F939F93AF93BF9310
:100E90008091F0019091F101A091F201B091F301E4
:100EA0003091EF0123E0230F2D3720F40196A11D8F
:100EB000B11D05C026E8230F0296A11DB11D209388
:100EC000EF018093F0019093F101A093F201B093B0
:100ED000F3018091F4019091F501A091F601B09198
:100EE000F7010196A11DB11D8093F4019093F501C6
:100EF000A093F601B093F701BF91AF919F918F91AD
:100F00003F912F910F900FBE0F901F9018951F9239
:100F10000F920FB60F9211242F933F934F935F932D
:100F20006F937F938F939F93AF93BF93EF93FF93B1
:100F30008091B900887F803609F49CC068F58832BA
:100F400009F45BC090F4803109F454C038F488236C
:100F500009F4F6C0883009F44DC0F6C0883109F4B0
:100F60004CC0803209F45DC0EFC0803409F468C021
:100F700048F4803309F455C0883309F0E5C0809304
:100F80004C02D8C0803509F44FC0883509F45DC0E3
:100F9000883409F0D9C0D6C0883909F4C7C0A8F48C
:100FA000883709F467C038F4883609F463C080379D
:100FB00009F460C0C9C0883809F4B8C0803909F4A0
:100FC0005FC0803809F0C0C05BC0803B09F486C0B8
:100FD00038F4803A09F466C0883A09F47FC0B4C096
:100FE000803C09F4A7C0883C09F4A4C0883B09F4FC
:100FF0008AC0AAC08091290210C090914B028091B2
:101000004A02981770F5E0914B0281E08E0F8093B1
:101010004B02F0E0E65DFD4F80818093BB0085ECE4
:1010200086C080934C028EC0E0914B0281E08E0F0F
:1010300080934B028091BB00F0E0E65DFD4F808322
:1010400090914B0280914A026EC0E0914B0281E088
:101050008E0F80934B028091BB00F0E0E65DFD4F68
:10106000808380914D0281116DC081E080932802C0
:1010700084EA61C083E080934E021092EE01CFCFEC
:101080008091EE01803208F051C0E091EE0181E0E4
:101090008E0F8093EE018091BB00F0E0E253FE4F93
:1010A0008083BDCF85EC8093BC0010924E0280916E
:1010B000EE01803230F4E091EE01F0E0E253FE4FB9
:1010C00010826091EE0170E0E091CC01F091CD01D1
:1010D0008EEC91E009951092EE0136C084E0809389
:1010E0004E021092CB011092CA01E091C801F0911A
:1010F000C90109958091CA01811105C081E08093E1
:10110000CA011092A801E091CB0181E08E0F80937B
:10111000CB01F0E0E855FE4F80818093BB009091B9
:10112000CB018091CA01981708F479CF85E88093A4
:10113000BC000AC085EC8093BC0010924E0204C033
:1011400010924C020E944002FF91EF91BF91AF912B
:101150009F918F917F916F915F914F913F912F91CF
:101160000F900FBE0F901F901895BC01009791F043
:10117000FC0101900020E9F73197AF01481B590BA2
:10118000E0917302F09174020280F381E02D83E715
:1011900092E0099480E090E00895CF93DF930E945D
:1011A000B508EC0185EA91E00E94B5088C0F9D1FFF
:1011B000DF91CF910895382F2091720290917102A2
:1011C000213208F049C080914E028111FCCF42E0EB
:1011D00040934E0230934D023FEF30934C021092F9
:1011E0004B0220934A02A1E5B2E04AE252E0FA0142
:1011F0003E2F341B321718F43D913193F9CF1092E2
:10120000290220912902990F922B90932902909103
:101210002802913061F41092280290912902909353
:10122000BB009091BC0093FDF8CF95EC01C095EE0A
:101230009093BC0090914E029230E1F390914C0259
:101240009F3F79F080914C02803241F080914C02B6
:10125000803331F084E005C081E003C082E001C04A
:1012600083E0109250021092720210924F02089581
:10127000CF93C62F9091CF0221E020934F029093FD
:1012800071021092500210927202682F83EC92E069
:101290000E94CE026C2F83EC92E00E94CE0281E08D
:1012A000CF910C94DB0890914E029111FCCF91E00C
:1012B00090934E0290934D022FEF20934C02109288
:1012C0004B02260F20934A02909329029091290203
:1012D000880F892B8093290280912802813061F444
:1012E00010922802809129028093BB008091BC005B
:1012F00083FDF8CF85EC01C085EE8093BC00809122
:101300004E028130E1F380914B02861710F4609118
:101310004B02AAE2B2E028E032E0F9018E2F821BF4
:10132000861718F48D918193F9CF862F089590E058
:10133000FC01EA54FE4F2491FC01E956FE4F8491D2
:10134000882399F090E0880F991FFC01E757FE4F22
:10135000A591B491FC01E558FE4F859194918FB70A
:10136000F894EC91E22BEC938FBF08958F929F92AB
:10137000AF92BF920F931F93CF93DF93CDB7DEB79A
:10138000A1970FB6F894DEBF0FBECDBF19A24230B1
:1013900008F44AE08E010F5D1F4F842E912CA12C82
:1013A000B12CA50194010E94B30CE62FB901CA012A
:1013B00001501109EA3014F4E05D01C0E95CD80184
:1013C000EC93232B242B252B61F7C8010E94B50831
:1013D000A1960FB6F894DEBF0FBECDBFDF91CF91BF
:1013E0001F910F91BF90AF909F908F900895FC0137
:1013F00080910702811103C08FEF9FEF08959FB77F
:10140000F89482E08093E9002091F20030E0121617
:10141000130614F421E030E02115310559F0289A23
:1014200084E6809306028091F10080838091F2002F
:10143000882319F09FBFC90108958BE68093E800C7
:10144000F9CF2FB7F89483E08093E9009091E800FA
:10145000892F807295FF04C09091F20080E4891B6F
:101460002FBF08958091D40281110DC082E0809336
:10147000D00284E08093D1021092D3021092D20263
:1014800081E08093D40280ED92E00895789484B551
:10149000826084BD84B5816084BD85B5826085BD70
:1014A00085B5816085BD80916E00816080936E00FE
:1014B00010928100809181008260809381008091F0
:1014C00081008160809381008091800081608093A1
:1014D00080008091910082608093910080919100C2
:1014E0008160809391008091900081608093900052
:1014F0008091C10084608093C1008091C1008260AE
:101500008093C1008091C10081608093C10080916F
:10151000C30081608093C3008091C000826080938B
:10152000C0008091C20081608093C20080917A00E7
:10153000846080937A0080917A00826080937A0040
:1015400080917A00816080937A0080917A0080682F
:1015500080937A00109207021092FF011092FE0110
:101560008091D70081608093D70080EA8093D80073
:1015700089B5806189BD89B5826089BD09B400FEE5
:10158000FDCF61E070E080E090E00E947E068091F7
:10159000D8008F7C80618093D8008091E000807FAC
:1015A0008093E0008091E1008E7E8093E1008DE0E9
:1015B0008093E200559A209A5D982898EEEFFFE715
:1015C000859194918B3F9C4D19F481E08093FD01AE
:1015D0008FEF9FEF9093800280937F028CE00E94B8
:1015E00097098BE00E9497098AE00E94970989E099
:1015F0000E94970988E00E94970987E00E94970956
:1016000086E00E94970985E00E949709C0910B012E
:101610006AE070E080E090E00E947E06C11107C0A1
:101620006AE070E080E090E00E947E06EFCF87E302
:1016300091E00E94CD0810920102109200021092D7
:1016400050021092720210924E02C1E0C0934D02FD
:101650001092280261E082E00E941B0661E083E0B4
:101660000E941B068091B9008E7F8093B900809103
:10167000B9008D7F8093B90088E48093B80085E439
:101680008093BC008AE58093CF0263E680E80E94E5
:10169000380961E070E080E090E00E947E0660E042
:1016A0008EE50E9438098091CF02C0934F0280934B
:1016B000710210925002109272026DE583EC92E07A
:1016C0000E94CE0280E00E94DB0861E08091CF02A0
:1016D0000E94530910920102809300028130A9F701
:1016E00083EC92E00E948202843209F016C1C1E4C8
:1016F0006CE08C2F0E94380966E081E08C0F0E941C
:101700003809CE5FC935A1F761E08BE20E94380944
:1017100061E08CE20E9438096EE08DE20E94380997
:1017200060E08EE20E94380961E08FE20E94380991
:1017300065E080E30E94380961E081E30E94380996
:1017400060E082E30E94380960E083E30E94380988
:1017500060E084E30E94380960E085E30E94380974
:1017600060E08BE50E94380960E18CE50E94380951
:1017700060E28DE50E9438096FE88EE50E94380925
:1017800084E691E00E94CD0801E010E080E0E82EC0
:1017900080E0F82E772473948091CF0270924F02EC
:1017A00080937102109250021092720260E083ECFA
:1017B00092E00E94CE0280E00E94DB0862E080910D
:1017C000CF020E94530910920102809300028230DE
:1017D000A9F783EC92E00E948202EC0183EC92E094
:1017E0000E948202D82EC12CCC29DD29DF70D09333
:1017F0000502C0930402812C912C5401682CE8014D
:10180000082C02C0CC0FDD1F0A94E2F7809104027D
:10181000909105028C239D23892B71F18091020206
:10182000909103028C239D23892B31F54AE0C50159
:10183000B4010E94B60982E791E00E94CD08882D8C
:1018400090E0FC013497E830F105B0F4EB59FF4F1C
:1018500061E00C94D50C8CE00DC08BE00BC08AE0ED
:1018600009C089E007C088E005C087E003C086E0C2
:1018700001C085E00E941B06809104029091050240
:101880008C239D23892B71F5809102029091030294
:10189000C823D923CD2B31F14AE0C501B4010E9400
:1018A000B6098BE791E00E94CD08862D90E0FC01FF
:1018B0003497E830F105B0F4E359FF4F60E00C9441
:1018C000D50C8CE00DC08BE00BC08AE009C089E02C
:1018D00007C088E005C087E003C086E001C085E05E
:1018E0000E941B068FEF881A980AA80AB80A2CE0F3
:1018F00082169104A104B10409F080CF8091040202
:10190000909105029093030280930202E114F10486
:1019100009F442CF0E9400003FCF85E891E00E9489
:10192000CD08FFCFE3E7F2E01382128288EE93E066
:10193000A0E0B0E084839583A683B78327E131E0FC
:10194000318320832FEF3FEF35872487E3ECF2E0EC
:101950001382128284839583A683B78389E291E000
:10196000918380830895A1E21A2EAA1BBB1BFD015F
:101970000DC0AA1FBB1FEE1FFF1FA217B307E4076E
:10198000F50720F0A21BB30BE40BF50B661F771FC6
:10199000881F991F1A9469F76095709580959095A6
:1019A0009B01AC01BD01CF010895EE0FFF1F059013
:0A19B000F491E02D0994F894FFCFA4
:1019BA00FFFFFFFF00E100000000000000C180817E
:1019CA0000000000000000E001B8063303F6010140
:1019DA00025B03370300000000CE029E02FE027281
:1019EA00029602820273024164616672756974200A
:1019FA004D505231323120436170616369746976A6
:101A0A006520546F7563682073656E736F722074F6
:101A1A00657374004D505231323120666F756E64B1
:101A2A00210020746F7563686564002072656C65B7
:101A3A0061736564004D5052313231206E6F7420EB
:101A4A00666F756E642C20636865636B20776972B4
:081A5A00696E673F000D0A00F0
:00000001FF
