:100000000C946D000C9495000C9495000C94950044
:100010000C9495000C9495000C9495000C9495000C
:100020000C9495000C9495000C9495000C949500FC
:100030000C9495000C9495000C9495000C949500EC
:100040000C9465040C9495000C9433040C940D04EA
:100050000C9495000C9495000C9495000C949500CC
:100060000C94AF040C949500D107CF07CD07CB07B4
:10007000C907C707C507C30707080508030801081C
:10008000FF07FD07FB07F907000000080002010059
:100090000003040700000000000000000000000052
:1000A000250028002B0000000000240027002A0063
:1000B000040404040404040402020202020203030E
:1000C0000303030301020408102040800102040816
:1000D0001020010204081020DD0511241FBECFEFFF
:1000E000D8E0DEBFCDBF11E0A0E0B1E0EAEAF0E188
:1000F00002C005900D92A639B107D9F723E0A6E911
:10010000B1E001C01D92A130B207E1F710E0CDE6E9
:10011000D0E004C02197FE010E944808CC36D107E8
:10012000C9F70E9416060C9453080C940000382F4F
:100130002091560290915502213208F049C08091D9
:1001400032028111FCCF42E04093320230933102FF
:100150003FEF3093300210922F0220932E02A5E33E
:10016000B2E04EE052E0FA013E2F341B321718F491
:100170003D913193F9CF10920D0220910D02990F0C
:10018000922B90930D0290910C02913061F4109299
:100190000C0290910D029093BB009091BC0093FDD6
:1001A000F8CF95EC01C095EE9093BC00909132028F
:1001B0009230E1F3909130029F3F79F080913002CC
:1001C000803241F080913002803331F084E005C00C
:1001D00081E003C082E001C083E0109234021092FB
:1001E0005602109233020895909132029111FCCF81
:1001F00091E090933202909331022FEF20933002DE
:1002000010922F02260F20932E0290930D029091B0
:100210000D02880F892B80930D0280910C02813092
:1002200061F410920C0280910D028093BB008091CA
:10023000BC0083FDF8CF85EC01C085EE8093BC0047
:10024000809132028130E1F380912F02861710F401
:1002500060912F02AEE0B2E02CEE31E0F9018E2F7A
:10026000821B861718F48D918193F9CF862F0895FC
:1002700090E0FC01EC53FF4F2491FC01E055FF4F4F
:100280008491882399F090E0880F991FFC01EA552A
:10029000FF4FA591B491FC01E456FF4F85919491D5
:1002A0008FB7F894EC91E22BEC938FBF0895CF9227
:1002B000DF92EF92FF920F931F93CF93DF936C0126
:1002C0007A018B01C0E0D0E0CE15DF0589F0D801BE
:1002D0006D918D01D601ED91FC910190F081E02DA1
:1002E000C6010995892B11F47E0102C02196ECCF3D
:1002F000C701DF91CF911F910F91FF90EF90DF9099
:10030000CF900895FC01538D448D252F30E0842F2C
:1003100090E0821B930B541710F0CF96089501972D
:100320000895FC01918D828D981761F0828DDF0117
:10033000A80FB11D5D968C91928D9F5F9F73928FD8
:1003400090E008958FEF9FEF0895FC01918D828DCD
:10035000981731F0828DE80FF11D858D90E008959A
:100360008FEF9FEF0895FC01918D228D892F90E0F2
:10037000805C9F4F821B91098F739927089587E5B1
:1003800092E00E94B30121E0892B09F420E0822F42
:100390000895FC01848DDF01A80FB11DA35ABF4F42
:1003A0002C91848D90E001968F739927848FA68974
:1003B000B7892C93A089B1898C9180648C93938D9B
:1003C000848D981306C00288F389E02D80818F7D8B
:1003D00080830895EF92FF920F931F93CF93DF9343
:1003E000EC0181E0888F9B8D8C8D981305C0E88986
:1003F000F989808185FD24C0F62E0B8D10E00F5FFA
:100400001F4F0F731127E02E8C8DE8120CC00FB612
:1004100007FCFACFE889F989808185FFF5CFCE0105
:100420000E94C901F1CF8B8DFE01E80FF11DE35A47
:10043000FF4FF0820B8FEA89FB898081806207C0C1
:10044000EE89FF896083E889F989808180648083EF
:1004500081E090E0DF91CF911F910F91FF90EF909D
:100460000895CF93DF93EC01888D8823C9F0EA8942
:10047000FB89808185FD05C0A889B9898C9186FD9D
:100480000FC00FB607FCF5CF808185FFF2CFA8899A
:10049000B9898C9185FFEDCFCE010E94C901E7CFCC
:1004A000DF91CF91089580E090E0892B29F00E94A0
:1004B000BF0181110C940000089590E0FC01E85701
:1004C000FF4F3491FC01EC53FF4F2491FC01E055A8
:1004D000FF4FE491EE2309F43BC0332339F133306D
:1004E00091F038F43130A9F0323001F584B58F7DC8
:1004F00012C0373091F03830A1F03430B9F4809127
:1005000080008F7D03C0809180008F778093800072
:100510000DC084B58F7784BD09C08091B0008F77FE
:1005200003C08091B0008F7D8093B000F0E0EE0FAB
:10053000FF1FE456FF4FA591B4918FB7F894EC914B
:10054000611103C020952E2301C02E2B2C938FBF49
:1005500008953FB7F8948091E2019091E301A09152
:10056000E401B091E50126B5A89B05C02F3F19F025
:100570000196A11DB11D3FBFBA2FA92F982F882723
:10058000820F911DA11DB11DBC01CD0142E0660F7E
:10059000771F881F991F4A95D1F7089585ED80939D
:1005A000BC008091BC0084FDFCCF10923202089503
:1005B0004091B801262F30E0240F311D2132310542
:1005C000DCF4209132022430C9F4FC0180E090E098
:1005D000861758F43091B8012191DC01AA56BE4F1C
:1005E000A30FB11D2C930196F3CF8091B801680F32
:1005F0006093B80180E0089581E0089582E0089555
:100600000895E091E7018091E601E81730F4F0E009
:10061000E451FE4F808190E008958FEF9FEF0895A1
:100620009091E7018091E601981750F4E92FF0E0EE
:10063000E451FE4F208130E09F5F9093E70102C0BC
:100640002FEF3FEFC90108958091E60190E02091DE
:10065000E701821B91090895CF92DF92EF92FF92FA
:100660000F931F93CF93DF937C01262F972F8A013F
:1006700080913302882391F0C62FD72F6E01C40ECC
:10068000D51ECC15DD0571F06991D701ED91FC9176
:100690000190F081E02DC7010995F3CF642F822FDF
:1006A0000E94D802C801DF91CF911F910F91FF9056
:1006B000EF90DF90CF900895CF93DF931F92CDB747
:1006C000DEB76983209133022223D1F020915602B4
:1006D000203240F021E030E0FC013383228380E0CF
:1006E00090E015C080913402E82FF0E0EB5CFD4F04
:1006F000998190838F5F809334028093560205C066
:1007000061E0CE0101960E94D80281E090E00F9056
:10071000DF91CF910895CF93C62F9091000321E0F0
:100720002093330290935502109234021092560295
:10073000682F84EF92E00E945C036C2F84EF92E0BC
:100740000E945C0381E0CF910C949700089580E0B3
:1007500090E00895009769F0FC0101900020E9F70E
:100760003197AF01481B590BBC0187E592E00C940F
:10077000570180E090E00895CF93DF930E94AA0391
:10078000EC0184E291E00E94AA038C0F9D1FDF918F
:10079000CF9108958F929F92AF92BF920F931F9324
:1007A000CF93DF93CDB7DEB7A1970FB6F894DEBF36
:1007B0000FBECDBF19A2423008F44AE08E010F5D92
:1007C0001F4F842E912CA12CB12CA50194010E94C5
:1007D0002608E62FB901CA0101501109EA3014F4C4
:1007E000E05D01C0E95CD801EC93232B242B252B81
:1007F00061F7C8010E94AA03A1960FB6F894DEBF64
:100800000FBECDBFDF91CF911F910F91BF90AF90E1
:100810009F908F9008950E944E081F920F920FB6DE
:100820000F9211242F933F934F935F936F937F9376
:100830008F939F93AF93BF93EF93FF9387E592E0DE
:100840000E94C901FF91EF91BF91AF919F918F914C
:100850007F916F915F914F913F912F910F900FBEBC
:100860000F901F9018951F920F920FB60F921124A0
:100870002F938F939F93EF93FF93E0916702F091F3
:1008800068028081E0916D02F0916E0282FD12C0DB
:100890009081809170028F5F8F7320917102821717
:1008A00051F0E0917002F0E0E95AFD4F958F80938E
:1008B000700201C08081FF91EF919F918F912F91E4
:1008C0000F900FBE0F901F9018951F920F920FB6AA
:1008D0000F9211242F933F938F939F93AF93BF93C6
:1008E0008091DE019091DF01A091E001B091E101E2
:1008F0003091DD0123E0230F2D3720F40196A11D57
:10090000B11D05C026E8230F0296A11DB11D20933D
:10091000DD018093DE019093DF01A093E001B093AD
:10092000E1018091E2019091E301A091E401B09195
:10093000E5010196A11DB11D8093E2019093E301B1
:10094000A093E401B093E501BF91AF919F918F9186
:100950003F912F910F900FBE0F901F9018951F92EF
:100960000F920FB60F9211242F933F934F935F93E3
:100970006F937F938F939F93AF93BF93EF93FF9367
:100980008091B900887F803609F49CC068F5883270
:1009900009F45BC090F4803109F454C038F4882322
:1009A00009F4F6C0883009F44DC0F6C0883109F466
:1009B0004CC0803209F45DC0EFC0803409F468C0D7
:1009C00048F4803309F455C0883309F0E5C08093BA
:1009D0003002D8C0803509F44FC0883509F45DC0B5
:1009E000883409F0D9C0D6C0883909F4C7C0A8F442
:1009F000883709F467C038F4883609F463C0803753
:100A000009F460C0C9C0883809F4B8C0803909F455
:100A10005FC0803809F0C0C05BC0803B09F486C06D
:100A200038F4803A09F466C0883A09F47FC0B4C04B
:100A3000803C09F4A7C0883C09F4A4C0883B09F4B1
:100A40008AC0AAC080910D0210C090912F0280919F
:100A50002E02981770F5E0912F0281E08E0F80939F
:100A60002F02F0E0E25FFD4F80818093BB0085ECB8
:100A700086C0809330028EC0E0912F0281E08E0FFD
:100A800080932F028091BB00F0E0E25FFD4F8083F6
:100A900090912F0280912E026EC0E0912F0281E092
:100AA0008E0F80932F028091BB00F0E0E25FFD4F3C
:100AB00080838091310281116DC081E080930C02AE
:100AC00084EA61C083E0809332021092DC01CFCFD0
:100AD0008091DC01803208F051C0E091DC0181E0BE
:100AE0008E0F8093DC018091BB00F0E0E454FE4F58
:100AF0008083BDCF85EC8093BC0010923202809140
:100B0000DC01803230F4E091DC01F0E0E454FE4F8F
:100B100010826091DC0170E0E091BA01F091BB01BC
:100B20008CEB91E009951092DC0136C084E0809353
:100B300032021092B9011092B801E091B601F09121
:100B4000B70109958091B801811105C081E08093BA
:100B5000B80110929601E091B90181E08E0F809367
:100B6000B901F0E0EA56FE4F80818093BB0090917E
:100B7000B9018091B801981708F479CF85E880937E
:100B8000BC000AC085EC8093BC001092320204C005
:100B9000109230020E94CE02FF91EF91BF91AF916F
:100BA0009F918F917F916F915F914F913F912F9185
:100BB0000F900FBE0F901F901895E7E5F2E013829B
:100BC000128288EE93E0A0E0B0E084839583A68350
:100BD000B78324E031E03183208325EC30E0358792
:100BE000248724EC30E03787268720EC30E0318BF7
:100BF000208B21EC30E0338B228B22EC30E0358BE4
:100C0000248B26EC30E0378B268B118E128E138EC0
:100C1000148EE4EFF2E01382128284839583A6831C
:100C2000B78386E191E0918380830895789484B5B9
:100C3000826084BD84B5816084BD85B5826085BDD8
:100C400085B5816085BD80916E00816080936E0066
:100C50001092810080918100826080938100809158
:100C60008100816080938100809180008160809309
:100C700080008091B10084608093B1008091B000C9
:100C800081608093B00080917A00846080937A00C4
:100C900080917A00826080937A0080917A008160EE
:100CA00080937A0080917A00806880937A00109215
:100CB000C100E0916702F091680282E08083E091D8
:100CC0006302F09164021082E0916502F091660285
:100CD0008FEC808310926F02E0916B02F0916C02B6
:100CE00086E08083E0916902F0916A0280818061F0
:100CF0008083E0916902F0916A028081886080833C
:100D0000E0916902F0916A02808180688083E091BD
:100D10006902F0916A0280818F7D80838CE00E945D
:100D200038018BE00E9438018AE00E94380189E096
:100D30000E94380188E00E94380187E00E94380153
:100D400086E00E94380185E00E94380187E291E048
:100D50000E94BC031092E7011092E6011092340247
:100D6000109256021092320281E08093310210926A
:100D70000C0261E082E10E945D0261E083E10E9479
:100D80005D028091B9008E7F8093B9008091B90097
:100D90008D7F8093B90088E48093B80085E48093C8
:100DA000BC008AE58093000363E680E80E948B0321
:100DB0000E94A9026B017C010E94A902DC01CB0107
:100DC0008C199D09AE09BF09883E9340A105B10564
:100DD00098F360E08EE50E948B038091000391E020
:100DE000909333028093550210923402109256026F
:100DF0006DE584EF92E00E945C0380E00E94970022
:100E000061E0809100030E94F4001092E70180935A
:100E1000E6018130A9F784EF92E00E94100384324A
:100E200009F00FC1C1E46CE08C2F0E948B0366E0D7
:100E300081E08C0F0E948B03CE5FC935A1F761E082
:100E40008BE20E948B0361E08CE20E948B036EE0D8
:100E50008DE20E948B0360E08EE20E948B0361E0D2
:100E60008FE20E948B0365E080E30E948B0361E0C8
:100E700081E30E948B0360E082E30E948B0360E0C9
:100E800083E30E948B0360E084E30E948B0360E0B5
:100E900085E30E948B0360E08BE50E948B0360E199
:100EA0008CE50E948B0360E28DE50E948B036FE866
:100EB0008EE50E948B0384E591E00E94BC03D1E0A3
:100EC000EE24E394F12C80910003D09333028093BD
:100ED0005502109234021092560260E084EF92E0C4
:100EE0000E945C0380E00E94970062E08091000312
:100EF0000E94F4001092E7018093E6018230A9F786
:100F000084EF92E00E9410036C0184EF92E00E9453
:100F10001003182F00E0C02AD12A8FE0D822D092E7
:100F2000EB01C092EA01812C912C5401C82D67017C
:100F3000082C02C0CC0CDD1C0A94E2F78091EA0177
:100F40009091EB018C219D21892B71F18091E80119
:100F50009091E9018C219D21892B31F54AE0C50151
:100F6000B4010E94CA0382E691E00E94BC03882D6E
:100F700090E0FC013497E830F105B0F4EC5CFF4FF1
:100F800061E00C9448088CE00DC08BE00BC08AE057
:100F900009C089E007C088E005C087E003C086E09B
:100FA00001C085E00E945D028091EA019091EB0111
:100FB0008C219D21892B71F58091E8019091E901A7
:100FC000C822D922CD2831F14AE0C501B4010E94DE
:100FD000CA038BE691E00E94BC038C2F90E0FC01D9
:100FE0003497E830F105B0F4E45CFF4F60E00C9416
:100FF00048088CE00DC08BE00BC08AE009C089E096
:1010000007C088E005C087E003C086E001C085E036
:101010000E945D022FEF821A920AA20AB20A8CE0A5
:1010200088169104A104B10409F080CF8091EA01EF
:101030009091EB019093E9018093E8010E945302A3
:1010400042CF85E791E00E94BC03FFCFA1E21A2EB8
:10105000AA1BBB1BFD010DC0AA1FBB1FEE1FFF1F5C
:10106000A217B307E407F50720F0A21BB30BE40BAC
:10107000F50B661F771F881F991F1A9469F76095F3
:101080007095809590959B01AC01BD01CF010895AD
:10109000EE0FFF1F0590F491E02D099481E090E0A0
:0A10A000F8940C945308F894FFCF65
:1010AA0000000000EA01570182013102B3019101F7
:1010BA00A501000000005C032C03A703000324031E
:1010CA00100301030D0A0041646166727569742098
:1010DA004D505231323120436170616369746976CF
:1010EA006520546F7563682073656E736F72207420
:1010FA00657374004D505231323120666F756E64DB
:10110A00210020746F7563686564002072656C65E0
:10111A0061736564004D5052313231206E6F742014
:10112A00666F756E642C20636865636B20776972DD
:06113A00696E673F000032
:00000001FF
