:100000000C945E000C9486000C9486000C94860080
:100010000C9486000C9486000C9486000C94860048
:100020000C9486000C9486000C9486000C94860038
:100030000C9486000C9486000C9486000C94860028
:100040000C94CA030C9486000C9498030C947203CD
:100050000C9486000C9486000C9486000C94860008
:100060000C9486000C9486000000000024002700F9
:100070002A0000000008000201000003040700003D
:10008000000000000000010204081020408001026E
:1000900004081020010204081020000000002500C0
:1000A00028002B00040404040404040402020202D5
:1000B00002020303030303031404580611241FBEA2
:1000C000CFEFD8E0DEBFCDBF11E0A0E0B1E0E8E0C7
:1000D000F0E102C005900D92A232B107D9F721E0FC
:1000E000A2E2B1E001C01D92A53EB207E1F710E027
:1000F000CDE5D0E004C02197FE010E94BF06CC35BB
:10010000D107C9F70E94B2040C94F7070C940000C1
:1001100090E0FC01EE58FF4F2491FC01EA57FF4F9D
:100120003491FC01EC55FF4FE491EE23B9F1222309
:1001300039F1233091F038F42130A9F0223001F563
:1001400084B58F7D12C0273091F02830A1F0243083
:10015000B9F4809180008F7D03C0809180008F77FB
:10016000809380000DC084B58F7784BD09C08091D5
:10017000B0008F7703C08091B0008F7D8093B00076
:10018000F0E0EE0FFF1FE656FF4FA591B4918FB739
:10019000F894EC9130953E233C938FBF08958F9255
:1001A0009F92AF92BF92CF92DF92EF92FF922091F7
:1001B000CE013091CF018217930708F052C04B0156
:1001C000AA24BB24E82DC52ED62EE72EFF24FC2D15
:1001D000342F2091D301222361F0829E400111240B
:1001E000E92DC29E60011124FD2D429FD0011124F2
:1001F0003B2FF090D901E090D601A091D401B091AD
:10020000D501FE1008C0AC01440F551F840F951F87
:100210008A0F9B1F14C0880F991F880F991F8A0F80
:100220009B1F472F552766277727DC01AF0DB11D90
:10023000222321F0429FA0011124452F4C932091AD
:10024000D601DC01A20FB11DEC932091D701DC0196
:10025000A20FB11DFC932091D801FC01E20FF11D0A
:100260003083FF90EF90DF90CF90BF90AF909F9042
:100270008F900895CF92DF92EF92FF920F931F938A
:10028000CF93DF936C017A018B01C0E0D0E0CE15F3
:10029000DF0589F0D8016D918D01D601ED91FC91BA
:1002A0000190F081E02DC6010995892B11F47E01A2
:1002B00002C02196ECCFC701DF91CF911F910F9122
:1002C000FF90EF90DF90CF900895089580E090E048
:1002D0000895FC01538D448D252F30E0842F90E04C
:1002E000821B930B541710F0CF9608950197089531
:1002F000FC01918D828D981761F0828DDF01A80F2E
:10030000B11D5D968C91928D9F5F9F73928F90E04F
:1003100008958FEF9FEF0895FC01918D828D9817BE
:1003200031F0828DE80FF11D858D90E008958FEFFB
:100330009FEF0895FC01918D228D892F90E0805CC4
:100340009F4F821B91098F73992708958FE291E047
:100350000E949A0121E0892B09F420E0822F089560
:10036000FC01848DDF01A80FB11DA35ABF4F2C9152
:10037000848D90E001968F739927848FA689B78921
:100380002C93A089B1898C9180648C93938D848DFA
:10039000981306C00288F389E02D80818F7D8083C9
:1003A0000895EF92FF920F931F93CF93DF93EC0189
:1003B00081E0888F9B8D8C8D981305C0E889F98921
:1003C000808185FD24C0F62E0B8D10E00F5F1F4F3E
:1003D0000F731127E02E8C8DE8120CC00FB607FCAE
:1003E000FACFE889F989808185FFF5CFCE010E9497
:1003F000B001F1CF8B8DFE01E80FF11DE35AFF4FE5
:10040000F0820B8FEA89FB898081806207C0EE89C8
:10041000FF896083E889F98980818064808381E035
:1004200090E0DF91CF911F910F91FF90EF90089591
:10043000CF93DF93EC01888D8823C9F0EA89FB898B
:10044000808185FD05C0A889B9898C9186FD0FC082
:100450000FB607FCF5CF808185FFF2CFA889B98957
:100460008C9185FFEDCFCE010E94B001E7CFDF91E7
:10047000CF91089580E090E0892B29F00E94A60199
:1004800081110C9400000895CF93DF9390E0FC015C
:10049000EA57FF4F2491FC01EC55FF4F84918823CC
:1004A00061F190E0880F991FFC01E859FF4FC59159
:1004B000D491FC01E656FF4FA591B491611109C09A
:1004C0009FB7F8948881209582238883EC912E230E
:1004D0000BC0623061F49FB7F8943881822F809509
:1004E00083238883EC912E2B2C939FBF06C08FB75C
:1004F000F894E8812E2B28838FBFDF91CF91089548
:100500003FB7F8948091270190912801A09129018B
:10051000B0912A0126B5A89B05C02F3F19F001967E
:10052000A11DB11D3FBFBA2FA92F982F8827820F79
:10053000911DA11DB11DBC01CD0142E0660F771FC9
:10054000881F991F4A95D1F708950F931F93CF9352
:10055000DF93CDB7DEB729970FB6F894DEBF0FBE95
:10056000CDBF0E9480020091DA011091DB01209141
:10057000DC013091DD01DC01CB01801B910BA20B72
:10058000B30B8C329140A105B10558F3F8948091DA
:10059000D0019091D1019A838983E091D401F091A7
:1005A000D501DF011196808189879091CC01E0917E
:1005B000DE01F091DF018091E001992309F42EC062
:1005C0009081982B98879081809589238F838F8144
:1005D0008C8388E08B8358856F8149853B812C8192
:1005E00089819A81508347FD252F3A952083262FB4
:1005F00039F0441F00C000006083000000C0F2CF4B
:1006000038E04D9160830000019761F7F093DF01BE
:10061000E093DE0149873B832C8338C09081982B7F
:1006200098879081809589238F838F818E8388E03E
:100630008D8358856F8149853D812E8189819A817D
:10064000508347FD252F00C000C0208300C000C09C
:1006500000C000C000C060830000262F3A9541F022
:10066000441F000000C000C000C000C000C0E8CFB0
:1006700038E04D9100C0608300C0019709F7F09306
:10068000DF01E093DE0149873D832E839A838983CE
:1006900078940E9480026093DA017093DB0180936A
:1006A000DC019093DD0129960FB6F894DEBF0FBEF2
:1006B000CDBFDF91CF911F910F910895009769F001
:1006C000FC0101900020E9F73197AF01481B590B5D
:1006D000BC018FE291E00C943A0180E090E0089533
:1006E0000E94F2071F920F920FB60F9211242F93C0
:1006F0003F934F935F936F937F938F939F93AF93AA
:10070000BF93EF93FF938FE291E00E94B001FF91BE
:10071000EF91BF91AF919F918F917F916F915F9179
:100720004F913F912F910F900FBE0F901F901895F2
:100730001F920F920FB60F9211242F938F939F93B6
:10074000EF93FF93E0913F01F09140018081E091B0
:100750004501F091460182FD12C0908180914801CF
:100760008F5F8F7320914901821751F0E09148010A
:10077000F0E0E15DFE4F958F8093480101C08081DC
:10078000FF91EF919F918F912F910F900FBE0F903E
:100790001F9018951F920F920FB60F9211242F934E
:1007A0003F938F939F93AF93BF9380912301909139
:1007B0002401A0912501B09126013091220123E06E
:1007C000230F2D3720F40196A11DB11D05C026E889
:1007D000230F0296A11DB11D2093220180932301B6
:1007E00090932401A0932501B093260180912701C5
:1007F00090912801A0912901B0912A010196A11D93
:10080000B11D8093270190932801A0932901B093F3
:100810002A01BF91AF919F918F913F912F910F909E
:100820000FBE0F901F901895109232011092310157
:1008300088EE93E0A0E0B0E0809333019093340120
:10084000A0933501B09336018AE091E09093300196
:1008500080932F0185EC90E090933C0180933B01C5
:1008600084EC90E090933E0180933D0180EC90E019
:100870009093400180933F0181EC90E0909342017E
:100880008093410182EC90E0909344018093430176
:1008900086EC90E0909346018093450110924801C8
:1008A0001092490110924A0110924B011092CD0111
:1008B0001092D3011092DA011092DB011092DC0148
:1008C0001092DD0181E08093D9018093D6011092CE
:1008D000D70192E09093D8018093CC018AEB90E00D
:1008E0009093D1018093D0010E94C5069093D501C9
:1008F0008093D401009761F02AEBFC0111922A95B4
:10090000E9F78EE390E09093CF018093CE0108C089
:100910001092D1011092D0011092CF011092CE010D
:1009200086E08093D2018091CD01882339F061E087
:1009300086E00E94440286E00E948800EAEAF0E035
:10094000E491F0E0EE0FFF1FE656FF4F8591949182
:100950009093DF018093DE01ECE8F0E0E491E09316
:10096000E0010895CF93DF93CDB7DEB7A5970FB61B
:10097000F894DEBF0FBECDBF789484B5826084BD8D
:1009800084B5816084BD85B5826085BD85B5816093
:1009900085BD80916E00816080936E001092810011
:1009A00080918100826080938100809181008160CC
:1009B000809381008091800081608093800080918D
:1009C000B10084608093B1008091B0008160809319
:1009D000B00080917A00846080937A0080917A00E0
:1009E000826080937A0080917A00816080937A009F
:1009F00080917A00806880937A001092C100809183
:100A0000D20187FD07C061E00E9444028091D201BB
:100A10000E94880081E08093CD018091D401909163
:100A2000D501892B11F00E94A5022091D301222328
:100A300039F10091D4011091D501215051F030E0ED
:100A400040E050E06FEF7FEF80E090E00E946806AA
:100A500002C020E030E0F8014091D0015091D10176
:100A6000CF01801B910B8417950740F44081429F72
:100A7000C001439F900D11249193EECF1092D301AA
:100A800088E191E00E945E038EE191E00E945E03A6
:100A900061E089E00E944402E0913F01F091400151
:100AA00082E08083E0913B01F0913C011082E09173
:100AB0003D01F0913E018FEC808310924701E0915F
:100AC0004301F091440186E08083E0914101F0917F
:100AD0004201808180618083E0914101F091420177
:100AE000808188608083E0914101F09142018081A2
:100AF00080688083E0914101F091420180818F7D87
:100B000080839EE3292E312C2AE0422E512C612C29
:100B1000712C60E460937C0080917A008064809303
:100B20007A0080917A0086FDFCCFA09178008091B8
:100B30007900B0E0B82BB0932E01A0932D0127E1EE
:100B400030E00E94B80620E034E040E050E00E942F
:100B5000680669017A018FEFC81AD80AE80AF80A0C
:100B6000D0922C01C0922B010FE110E04AE054E139
:100B700060E070E0C8010E94CF004AE054E160E00C
:100B800070E0C101801B910B0E94CF008091D401C5
:100B90009091D501892B11F00E94A5020E9480023C
:100BA0009B01AC0184E6882E912CA12CB12C2AA3A8
:100BB0003BA34CA35DA30E9480022AA13BA14CA1B0
:100BC0005DA1DC01CB01821B930BA40BB50B883E0E
:100BD0009340A105B10548F0E1E08E1A9108A10803
:100BE000B10828513C4F4F4F5F4F81149104A1042D
:100BF000B104E9F640E050E0BA01C80104960E9451
:100C0000CF0040E050E0BA0189E390E0801B910BF7
:100C10000E94CF00015011090A3F6FEF160709F03B
:100C2000A5CFF7FE26C0E0912F01F0913001019091
:100C3000F081E02D6DE28FE291E0099522273327C4
:100C4000A9012C193D094E095F0919A28E010F5DFA
:100C50001F4FCA01B901A30192010E948706605D7E
:100C6000F80162938F01211531054105510589F77E
:100C700015C0A701960119A28E010F5D1F4FCA0171
:100C8000B901A30192010E948706605DF801629399
:100C90008F01211531054105510589F7C8010E94D1
:100CA0005E038EE191E00E945E030E943A0231CF22
:100CB0008091D4019091D501009711F00E945A07BC
:100CC0008091D20187FD03C060E00C944402089536
:100CD000052E97FB1EF400940E947F0657FD07D057
:100CE0000E94870607FC03D04EF40C947F065095B3
:100CF0004095309521953F4F4F4F5F4F0895909508
:100D00008095709561957F4F8F4F9F4F0895A1E219
:100D10001A2EAA1BBB1BFD010DC0AA1FBB1FEE1F75
:100D2000FF1FA217B307E407F50720F0A21BB30BC0
:100D3000E40BF50B661F771F881F991F1A9469F73C
:100D400060957095809590959B01AC01BD01CF0198
:100D50000895A29FB001B39FC001A39F700D811D94
:100D60001124911DB29F700D811D1124911D0895B4
:100D70000E94A906B7FF0895821B930B0895EE0FFA
:100D8000FF1F0590F491E02D0994CF93DF938230FB
:100D9000910510F482E090E0E091E301F091E4012C
:100DA00020E030E0C0E0D0E0309711F14081518187
:100DB00048175907C0F04817590761F48281938199
:100DC000209719F09B838A832BC09093E401809332
:100DD000E30126C02115310519F04217530718F415
:100DE0009A01BE01DF01EF010280F381E02DDCCF2B
:100DF0002115310509F1281B390B2430310590F4F8
:100E000012968D919C9113976115710521F0FB014C
:100E10009383828304C09093E4018093E301FD01F6
:100E2000329644C0FD01E20FF31F8193919322504B
:100E300031092D933C933AC02091E1013091E201B8
:100E4000232B41F420910201309103013093E20100
:100E50002093E1012091000130910101211531051C
:100E600041F42DB73EB74091040150910501241B78
:100E7000350BE091E101F091E201E217F307A0F4F4
:100E80002E1B3F0B2817390778F0AC014E5F5F4FE0
:100E90002417350748F04E0F5F1F5093E20140932F
:100EA000E1018193919302C0E0E0F0E0CF01DF9196
:100EB000CF9108950F931F93CF93DF93009709F479
:100EC0008CC0FC013297138212820091E3011091D1
:100ED000E4010115110581F420813181820F931FF6
:100EE0002091E1013091E2012817390779F5F0935B
:100EF000E201E093E10171C0D80140E050E0AE179B
:100F0000BF0750F412962D913C911397AD01211516
:100F1000310509F1D901F3CF9D01DA013383228331
:100F200060817181860F971F8217930769F4EC0126
:100F300028813981260F371F2E5F3F4F3183208351
:100F40008A819B8193838283452B29F4F093E4016A
:100F5000E093E30142C01396FC93EE931297ED01E8
:100F6000499159919E01240F351FE217F30771F43F
:100F700080819181840F951F029611969C938E9388
:100F80008281938113969C938E931297E0E0F0E018
:100F9000D80112968D919C911397009719F0F80142
:100FA0008C01F6CF8D919C9198012E5F3F4F820F5F
:100FB000931F2091E1013091E2012817390769F46C
:100FC000309729F41092E4011092E30102C01382D9
:100FD00012821093E2010093E101DF91CF911F9102
:100FE0000F91089581E090E0F8940C94F70710E0D9
:100FF000CDE5D0E004C0FE010E94BF062196CE35AB
:08100000D107C9F7F894FFCFF6
:101008000000E501800000000000D1013A016901FB
:1010180018029A0178018C0148454C4C4F000D0A82
:021028000000C6
:00000001FF
