:1000000008C1000034C1000032C1000030C100004E
:100010002EC100002CC100002AC1000028C1000030
:1000200026C1000024C1000022C1000020C1000040
:100030001EC100001CC100001AC1000018C1000050
:1000400016C1000014C1000012C1000010C1000060
:100050000EC100000CC100000AC1000030C3000046
:1000600006C1000004C1000002C1000000C1000080
:10007000FEC00000FCC00000FAC00000F8C0000094
:10008000F6C00000F4C00000F2C00000F0C00000A4
:10009000EEC00000ECC00000EAC00000E8C00000B4
:1000A000E6C00000E4C00000E2C00000E0C00000C4
:1000B000DEC00000DCC00000DAC00000D8C00000D4
:1000C000D6C00000D4C00000D2C00000D0C00000E4
:1000D000CEC00000CCC00000CAC00000C8C00000F4
:1000E000C6C000006501680157015B015F019F0107
:1000F0006C01700176017A017E01840188018C0116
:100100009F01920196019A0100002100240027001E
:100110002A002D0030003300010100000401070116
:100120000A0100002200250028002B002E003100CB
:10013000340002010000050108010B010505050559
:10014000070508080808020202020A0A080804044F
:10015000040401010101010101010303030303037D
:100160000303040707070C0C0C0C0C0C0C0C02020C
:10017000020206060606060606060B0B0B0B0B0B09
:100180000B0B010210202008081020401020408096
:10019000020102010804020101020408102040804B
:1001A00080402010080402018004020180402010D9
:1001B0000804020108040201010204081020408022
:1001C000010204081020408000000A0B02090C0DF7
:1001D0000E080703040100000000000000000000FA
:1001E000000000000000000000000000000000000F
:1001F00000000000121110000000000000000000CC
:100200000000000000000000000000000000CC041E
:100210002D0511241FBECFEFD1E2DEBFCDBF00E020
:100220000CBF22E0A6E0B2E001C01D92A832B207E6
:10023000E1F712E0A0E0B2E0EAE2FDE000E00BBF8F
:1002400002C007900D92A630B107D9F711E0C8E0BF
:10025000D1E000E005C021970109802FFE011FD4E5
:10026000C730D10780E00807B1F773D24DC5C8CEBB
:1002700090E0FC01E853FE4F4491FC01EE57FE4F25
:100280002491FC01E45CFE4F9491992309F466C02B
:10029000442309F454C050E0FA013197E231F105EA
:1002A00008F04DC08827EE58FF4F8F4FF8C380915C
:1002B00080008F7707C0809180008F7D03C0809180
:1002C0008000877F809380003AC084B58F7702C01A
:1002D00084B58F7D84BD33C08091B0008F7703C01B
:1002E0008091B0008F7D8093B00029C080919000F4
:1002F0008F7707C0809190008F7D03C08091900020
:10030000877F809390001BC08091A0008F7707C0EB
:100310008091A0008F7D03C08091A000877F809393
:10032000A0000DC0809120018F7707C0809120012F
:100330008F7D03C080912001877F80932001E92F6A
:10034000F0E0EE0FFF1FEE5DFE4FA591B4918FB769
:10035000F894EC9120952E232C938FBF08958F92C3
:100360009F92AF92BF92CF92DF92EF92FF924B019A
:10037000AA24BB24E82DC52ED62EE72EFF24FC2D63
:10038000342F20911602222361F0829E4001112415
:10039000E92DC29E60011124FD2D429FD001112440
:1003A0003B2FF0901C02E0901902A0911702B0912F
:1003B0001802FE1008C0AC01440F551F840F951F92
:1003C0008A0F9B1F14C0880F991F880F991F8A0FCF
:1003D0009B1F472F552766277727DC01AF0DB11DDF
:1003E000222321F0429FA0011124452F4C932091FC
:1003F0001902DC01A20FB11DEC9320911A02DC015D
:10040000A20FB11DFC9320911B02FC01E20FF11D14
:100410003083FF90EF90DF90CF90BF90AF909F9090
:100420008F900895CF93DF9390E0FC01EE57FE4F3D
:100430002491FC01E45CFE4F8491882361F190E0FB
:10044000880F991FFC01E85FFE4FC591D491FC0114
:10045000EE5DFE4FA591B491611109C09FB7F8946C
:100460008881209582238883EC912E230BC06230F3
:1004700061F49FB7F8943881822F80958323888315
:10048000EC912E2B2C939FBF06C08FB7F894E88178
:100490002E2B28838FBFDF91CF9108953FB7F8941B
:1004A00080910B0290910C02A0910D02B0910E026E
:1004B00026B5A89B05C02F3F19F00196A11DB11DBF
:1004C0003FBFBA2FA92F982F8827820F911DA11DFA
:1004D000B11DBC01CD0142E0660F771F881F991F37
:1004E0004A95D1F708950F931F93CF93DF93CDB71C
:1004F000DEB729970FB6F894DEBF0FBECDBFCEDFB3
:1005000000911D0210911E0220911F0230912002C5
:10051000DC01CB01801B910BA20BB30B8C32914001
:10052000A105B10560F3F894809113029091140233
:100530009A838983E0911702F0911802DF011196E6
:100540008081898790910F02E0912102F09122022F
:1005500080912302992309F42EC09081982B9887CB
:100560009081809589238F838F818C8388E08B8312
:1005700058856F8149853B812C8189819A8150837F
:1005800047FD252F3A952083262F39F0441F00C0C0
:1005900000006083000000C0F2CF38E04D9160831E
:1005A0000000019761F7F0932202E093210249874E
:1005B0003B832C8338C09081982B988790818095BD
:1005C00089238F838F818E8388E08D8358856F8107
:1005D00049853D812E8189819A81508347FD252F50
:1005E00000C000C0208300C000C000C000C000C028
:1005F00060830000262F3A9541F0441F000000C0A0
:1006000000C000C000C000C0E8CF38E04D9100C07D
:10061000608300C0019709F7F0932202E093210262
:1006200049873D832E839A838983789437DF60934B
:100630001D0270931E0280931F0290932002299640
:100640000FB6F894DEBF0FBECDBFDF91CF911F91E3
:100650000F9108950F931F938095853560F4682F4F
:10066000660F860F282F209590E0A0E0B0E0BC0137
:10067000CD01822B21C08A3A80F48555982F990F9D
:10068000980F692F6095462F50E060E070E08A0176
:100690009B01192BC901B8010FC08A5A682F660F38
:1006A000860F282F209590E0A0E0B0E0DC0199278C
:1006B0008827BC01CD01722B1F910F9108951F92C5
:1006C0000F920FB60F9211242F933F938F939F9306
:1006D000AF93BF938091070290910802A091090205
:1006E000B0910A023091060223E0230F2D3720F447
:1006F0000196A11DB11D05C026E8230F0296A11D7C
:10070000B11D209306028093070290930802A093E4
:100710000902B0930A0280910B0290910C02A09101
:100720000D02B0910E020196A11DB11D80930B0226
:1007300090930C02A0930D02B0930E02BF91AF9163
:100740009F918F913F912F910F900FBE0F901F900F
:100750001895789484B5826084BD84B5816084BD29
:1007600085B5826085BD85B5816085BD80916E004F
:10077000816080936E001092810080918100826080
:1007800080938100809181008160809381008091BD
:1007900080008160809380008091B10084608093AC
:1007A000B1008091B00081608093B0008091910091
:1007B000826080939100809191008160809391008C
:1007C000809190008160809390008091A100826070
:1007D0008093A1008091A10081608093A10080910D
:1007E000A00081608093A0008091210182608093AD
:1007F000210180912101816080932101809120015C
:1008000081608093200180917A00846080937A00D7
:1008100080917A00826080937A0080917A00816072
:1008200080937A0080917A00806880937A00109299
:10083000C1008091150287FD05C061E0F3DD809164
:10084000150216DD81E080931002809117029091CD
:100850001802892B09F047DE60911602653619F1FE
:100860002091170230911802615029F070E08FEF4B
:1008700094E601D102C060E070E0F90140911302FA
:1008800050911402CF01821B930B8417950740F4FB
:100890004081469FC001479F900D11249193EECF58
:1008A00085E68093160290E0A92E90E0B92E00E034
:1008B00010E0C0E0D0E0F02E8C2F800FCBDEAB013B
:1008C000BC018091110290911202C817D90710F44F
:1008D000CE0145DD2196CC30D10571F78FEFBADE20
:1008E0002B013C018091110290911202C817D90787
:1008F00020F4B301A201CE0132DD2196C532D1052B
:1009000089F78C2F8F19A6DEAB01BC0180911102F3
:1009100090911202C817D90710F4CE0120DD21965C
:10092000C133D10571F78091170290911802892B7C
:1009300009F0D9DDB3DD2B013C0184E6C82ED12CB2
:10094000E12CF12CABDDDC01CB0184199509A60962
:10095000B709883E9340A105B10558F021E0C21ABD
:10096000D108E108F10888EE480E83E0581E611CAA
:10097000711CC114D104E104F10421F70F5F1F4F72
:10098000011581E0180709F094CFA114B10409F40E
:100990008ECF0E9400008BCFCF93DF931092100276
:1009A0001092160210921D0210921E0210921F0247
:1009B0001092200283E080931C0281E08093190250
:1009C00010921A0292E090931B0280930F02C0E9EA
:1009D000D1E0D0931402C093130280E991E067D074
:1009E0009093180280931702009769F0FC019E0112
:1009F000119221503040E1F784E690E0909312028A
:100A00008093110208C010921402109213021092E7
:100A100012021092110286E080931502809110025A
:100A2000882329F061E086E0FDDC86E021DCE2E459
:100A3000F1E0E491F0E0EE0FFF1FEE5DFE4F8591D7
:100A400094919093220280932102E8E8F1E0E491EE
:100A5000E0932302DF91CF91089580911702909146
:100A60001802009709F0B8D08091150287FD02C0E6
:100A700060E0D8CC0895AA1BBB1B51E107C0AA1F98
:100A8000BB1FA617B70710F0A61BB70B881F991F2F
:100A90005A95A9F780959095BC01CD010895EE0F68
:100AA000FF1F881F8BBF0790F691E02D1994CF93FD
:100AB000DF938230910510F482E090E0E09126020D
:100AC000F091270220E030E0C0E0D0E0309711F153
:100AD0004081518148175907C0F04817590761F400
:100AE00082819381209719F09B838A832BC09093F6
:100AF00027028093260226C02115310519F04217DE
:100B0000530718F49A01BE01DF01EF010280F3815F
:100B1000E02DDCCF2115310509F1281B390B2430DC
:100B2000310590F412968D919C9113976115710582
:100B300021F0FB019383828304C09093270280936A
:100B40002602FD01329644C0FD01E20FF31F81939E
:100B50009193225031092D933C933AC02091240265
:100B600030912502232B41F420910202309103029F
:100B7000309325022093240220910002309101023B
:100B80002115310541F42DB73EB740910402509133
:100B90000502241B350BE0912402F0912502E21797
:100BA000F307A0F42E1B3F0B2817390778F0AC0190
:100BB0004E5F5F4F2417350748F04E0F5F1F50936D
:100BC0002502409324028193919302C0E0E0F0E07B
:100BD000CF01DF91CF9108950F931F93CF93DF93B0
:100BE000009709F48CC0FC013297138212820091A5
:100BF0002602109127020115110581F4208131810F
:100C0000820F931F20912402309125022817390763
:100C100079F5F0932502E093240271C0D80140E0F9
:100C200050E0AE17BF0750F412962D913C911397E8
:100C3000AD012115310509F1D901F3CF9D01DA018B
:100C40003383228360817181860F971F82179307F8
:100C500069F4EC0128813981260F371F2E5F3F4F41
:100C6000318320838A819B8193838283452B29F45E
:100C7000F0932702E093260242C01396FC93EE9372
:100C80001297ED01499159919E01240F351FE217EA
:100C9000F30771F480819181840F951F029611965C
:100CA0009C938E938281938113969C938E9312973B
:100CB000E0E0F0E0D80112968D919C911397009797
:100CC00019F0F8018C01F6CF8D919C9198012E5F5F
:100CD0003F4F820F931F2091240230912502281745
:100CE000390769F4309729F41092270210922602EE
:100CF00002C0138212821093250200932402DF9116
:100D0000CF911F910F91089511E0C8E0D1E000E06C
:100D100005C0802FFE01C3DE2196011DC930D10719
:0A0D200080E00807B1F7F894FFCF58
:060D2A0000002802800019
:00000001FF
