:100000000C9458000C9480000C9480000C94800098
:100010000C9480000C9480000C9480000C94800060
:100020000C9480000C9480000C9480000C94800050
:100030000C9480000C9480000C9480000C94800040
:100040000C94FE050C9480000C94CC050C94A60531
:100050000C9480000C9480000C9480000C94800020
:100060000C949C070C9480000000000025002800E0
:100070002B00040404040404040402020202020229
:10008000030303030303010204081020408001025C
:1000900004081020010204081020000000080002DB
:1000A00001000003040700000000000000009B0B9B
:1000B00011241FBECFEFD8E0DEBFCDBF23E0A0E408
:1000C000B1E001C01D92A237B207E1F711E0A0E054
:1000D000B1E0E8EAFFE102C005900D92A034B1075B
:1000E000D9F710E0C8E5D0E004C02197FE010E94D6
:1000F000C70FC735D107C9F70E949D090C94D20FCD
:100100000C9400002FB7F89480918E0190918F018C
:10011000A0919001B09191012FBF8093070290931D
:100120000802A0930902B0930A02E091FF01F09146
:1001300000020484F585E02D8FEF91E0099597FF8B
:1001400026C02FB7F89480918E0190918F01A091D5
:100150009001B09191012FBF409107025091080288
:100160006091090270910A02841B950BA60BB70BD4
:1001700040910302509104026091050270910602C1
:1001800084179507A607B70780F28FEF9FEF0895B2
:10019000CF92DF92EF92FF920F931F93CF93DF9353
:1001A0006C017A018B01C0E0D0E0CE15DF0589F04B
:1001B000D8016D918D01D601ED91FC910190F081F6
:1001C000E02DC6010995892B11F47E0102C021960C
:1001D000ECCFC701DF91CF911F910F91FF90EF906E
:1001E000DF90CF900895FC01538D448D252F30E092
:1001F000842F90E0821B930B541710F0CF96089534
:1002000001970895FC01918D828D981761F0828D80
:10021000DF01A80FB11D5D968C91928D9F5F9F733A
:10022000928F90E008958FEF9FEF0895FC01918DDC
:10023000828D981731F0828DE80FF11D858D90E049
:1002400008958FEF9FEF0895FC01918D228D892FE6
:1002500090E0805C9F4F821B91098F7399270895CE
:100260008FEF91E00E94240121E0892B09F420E026
:10027000822F0895FC01848DDF01A80FB11DA35AC0
:10028000BF4F2C91848D90E001968F739927848FB6
:10029000A689B7892C93A089B1898C9180648C93AD
:1002A000938D848D981306C00288F389E02D808198
:1002B0008F7D80830895EF92FF920F931F93CF93CA
:1002C000DF93EC0181E0888F9B8D8C8D981305C0A6
:1002D000E889F989808185FD24C0F62E0B8D10E018
:1002E0000F5F1F4F0F731127E02E8C8DE8120CC08B
:1002F0000FB607FCFACFE889F989808185FFF5CF31
:10030000CE010E943A01F1CF8B8DFE01E80FF11D65
:10031000E35AFF4FF0820B8FEA89FB89808180626C
:1003200007C0EE89FF896083E889F989808180644C
:10033000808381E090E0DF91CF911F910F91FF903A
:10034000EF900895CF93DF93EC01888D8823C9F057
:10035000EA89FB89808185FD05C0A889B9898C91CE
:1003600086FD0FC00FB607FCF5CF808185FFF2CF69
:10037000A889B9898C9185FFEDCFCE010E943A0101
:10038000E7CFDF91CF91089580E090E0892B29F0AD
:100390000E94300181110C940000089590E0FC014E
:1003A000E656FF4F3491FC01EA57FF4F2491FC01C0
:1003B000EE58FF4FE491EE2309F43BC0332339F1AB
:1003C000333091F038F43130A9F0323001F584B592
:1003D0008F7D12C0373091F03830A1F03430B9F44D
:1003E000809180008F7D03C0809180008F77809303
:1003F00080000DC084B58F7784BD09C08091B000A6
:100400008F7703C08091B0008F7D8093B000F0E0C3
:10041000EE0FFF1FE859FF4FA591B4918FB7F894E5
:10042000EC91611103C020952E2301C02E2B2C933B
:100430008FBF08953FB7F89480918801909189010A
:10044000A0918A01B0918B0126B5A89B05C02F3FD2
:1004500019F00196A11DB11D3FBFBA2FA92F982FEA
:100460008827820F911DA11DB11DBC01CD0142E065
:10047000660F771F881F991F4A95D1F7089585ED5C
:100480008093BC008091BC0084FDFCCF1092DA0107
:10049000089540916201262F30E0240F311D213252
:1004A0003105DCF42091DA012430C9F4FC0180E04C
:1004B00090E0861758F4309162012191DC01A05C34
:1004C000BE4FA30FB11D2C930196F3CF8091620113
:1004D000680F6093620180E0089581E0089582E0F2
:1004E00008951092DA0181E08093D9011092B4014D
:1004F00061E082E10E94CE0161E083E10E94CE01D1
:10050000E9EBF0E080818E7F808380818D7F808326
:1005100088E48093B80085E48093BC000895089532
:10052000E091B3018091B201E81730F4F0E0EE56AB
:10053000FE4F808190E008958FEF9FEF0895909196
:10054000B3018091B201981750F4E92FF0E0EE5614
:10055000FE4F208130E09F5F9093B30102C02FEFE8
:100560003FEFC90108958091B20190E02091B3015D
:10057000821B91090895CF92DF92EF92FF920F9321
:100580001F93CF93DF937C01262F972F8A018091B1
:10059000DB01882391F0C62FD72F6E01C40ED51E24
:1005A000CC15DD0571F06991D701ED91FC910190B9
:1005B000F081E02DC7010995F3CF642F822F0E94AF
:1005C0004902C801DF91CF911F910F91FF90EF90E9
:1005D000DF90CF900895CF93DF931F92CDB7DEB712
:1005E00069832091DB012223D1F02091FE0120328A
:1005F00040F021E030E0FC013383228380E090E092
:1006000015C08091DC01E82FF0E0E352FE4F9981A4
:1006100090838F5F8093DC018093FE0105C061E0D1
:10062000CE0101960E94490281E090E00F90DF9197
:10063000CF910895089580E090E00895CF93DF93DF
:10064000EC01613089F050F06230E1F0633061F527
:1006500061E08B810E94CE0160E019C061E08B8176
:100660000E94CE0160E005C060E08B810E94CE0157
:1006700061E08C810E94CE0161E08D810E94CE01FB
:1006800060E00DC060E08B810E94CE0161E08C8152
:100690000E94CE0160E08D810E94CE0161E08E81DA
:1006A000DF91CF910C94CE01DF91CF910895CF933C
:1006B000DF93EC01613049F030F0623061F063307B
:1006C000A1F460E009C060E001C061E08B810E949C
:1006D000CE0161E005C061E08B810E94CE0160E047
:1006E0008C81DF91CF910C94CE01DF91CF91089551
:1006F0001F93CF93DF93EC0111E020E030E0A901DC
:100700006F85788989899A890E94450F18160CF09F
:1007100010E0612F8C810E94CE0161E08B810E94EC
:10072000CE0160E08B81DF91CF911F910C94CE01BF
:10073000CF93DF93EC0120E030E0A9016F85788949
:1007400089899A890E94450F18161CF4EBA1FCA117
:1007500002C0EDA1FEA1DF91CF910994DC011296B8
:100760002C91213069F028F0223089F02430B1F04A
:100770000895DC01ED91FC910280F381E02D099454
:10078000DC01ED91FC910480F581E02D0DC0DC01D0
:10079000ED91FC910680F781E02D06C0DC01ED9122
:1007A000FC910084F185E02D0994CF93DF931F9293
:1007B000CDB7DEB7FC01808191E09093DB0180939F
:1007C000FD011092DC011092FE018CE992E0498358
:1007D0000E94EB024981642F8CE992E00E94EB02B7
:1007E00081E00F90DF91CF910C94CA088F929F9275
:1007F000AF92BF920F931F93CF93DF93CDB7DEB726
:10080000A1970FB6F894DEBF0FBECDBF19A242303C
:1008100008F44AE08E010F5D1F4F842E912CA12C0D
:10082000B12CA50194010E94A50FE62FB901CA01C0
:1008300001501109EA3014F4E05D01C0E95CD8010F
:10084000EC93232B242B252B61F70115110571F057
:10085000F80101900020E9F73197AF01401B510BDF
:10086000B8018FEF91E00E94C80002C080E090E0E4
:10087000A1960FB6F894DEBF0FBECDBFDF91CF912A
:100880001F910F91BF90AF909F908F9008950E94FD
:10089000CD0F8F929F92AF92BF92CF92DF92EF9245
:1008A000FF920F931F93CF93DF93EC018B859C8571
:1008B000AD85BE850F81188529853A85BC01CD019E
:1008C000601B710B820B930B09F4D0C08AF00E945D
:1008D000000D9B01AC010E94380E2F89388D498D87
:1008E0005A8D0E945F0D0E94500F6B017C011BC04E
:1008F00090958095709561957F4F8F4F9F4F0E9487
:10090000000D9B01AC010E94380E2F89388D498D56
:100910005A8D0E945F0D0E94500F6B017C01F7FA07
:10092000F094F7F8F0948F849888A988BA88A50184
:100930009401C701B6010E94450F18160CF043C080
:1009400020E030E0A901C501B4010E94F90C811139
:100950000BC06F89788D898D9A8D9B01AC010E94A7
:10096000380E0E94500F1BC0A50194016F89788D2D
:10097000898D9A8D0E94A40E6B017C0120E030E0ED
:10098000A9010E94450F181624F0F7FAF094F7F821
:10099000F094A7019601C501B4010E94380E7B01B5
:1009A0008C01BB88CC88DD88CE892B2D3C2D4D2D2C
:1009B0005C2F0E94450F18160CF05DC03B2D7C2D5E
:1009C0008D2D9C2F5FC0A5019401C701B6010E9427
:1009D000F90C87FF54C020E030E0A901C501B40143
:1009E0000E94F90C811111C06F89788D898D9A8DC3
:1009F0009B01AC010E94380E0E94500F6B017C01DC
:100A0000F7FAF094F7F8F0941DC0A50194016F89EE
:100A1000788D898D9A8D0E94A40E6B017C0120E057
:100A200030E0A9010E94450F181624F0F7FAF0945F
:100A3000F7F8F094A7019601C501B4010E94370EA2
:100A40006B017C018B889C88AD88BE88B7FAB09416
:100A5000B7F8B094A5019401C701B6010E94F90C42
:100A600087FF0DC0382D792DC5010CC030E070E036
:100A700080E090E007C03E2D7F2DC80103C03C2DD3
:100A80007D2DC701C32ED72E7C01C701B601DF9192
:100A9000CF911F910F91FF90EF90DF90CF90BF907B
:100AA000AF909F908F900895CF92DF92EF92FF9238
:100AB00088EA92E00E9449049B01AC016093B7026E
:100AC0007093B8028093B9029093BA0260E070E02C
:100AD0008AE794E40E94A40E6B017C0120E030E0E0
:100AE000A9010E94450F18161CF4C701B60103C0E6
:100AF000C701B60190580E94160F6093C30270930D
:100B0000C4028093C5029093C602FF90EF90DF90DD
:100B1000CF90089562E08091CF029091D0020C9422
:100B20002C0961E08091CF029091D0020C942C09A5
:100B300062E08091D1029091D2020C942C0961E084
:100B40008091D1029091D2020C942C091F920F92A5
:100B50000FB60F9211242F933F934F935F936F9390
:100B60007F938F939F93AF93BF93EF93FF938FEFF9
:100B700091E00E943A01FF91EF91BF91AF919F9157
:100B80008F917F916F915F914F913F912F910F9036
:100B90000FBE0F901F9018951F920F920FB60F92D5
:100BA00011242F938F939F93EF93FF93E0910F0264
:100BB000F09110028081E0911502F091160282FD01
:100BC00012C09081809118028F5F8F73209119025B
:100BD000821751F0E0911802F0E0E150FE4F958F3E
:100BE0008093180201C08081FF91EF919F918F91B6
:100BF0002F910F900FBE0F901F9018951F920F927C
:100C00000FB60F9211242F933F938F939F93AF931F
:100C1000BF9380918E0190918F01A0919001B0912E
:100C200091013091870123E0230F2D3720F40196A5
:100C3000A11DB11D05C026E8230F0296A11DB11DFF
:100C40002093870180938E0190938F01A093900150
:100C5000B09391018091880190918901A0918A01BE
:100C6000B0918B010196A11DB11D809388019093D5
:100C70008901A0938A01B0938B01BF91AF919F919D
:100C80008F913F912F910F900FBE0F901F9018954D
:100C90000F931F93CF93DF9300D0CDB7DEB7152FFF
:100CA000032FFC01808191E09093DB018093FD0193
:100CB0001092DC011092FE01F4E06F9FB00111244C
:100CC0006A5F7F4F8CE992E02A8349830E94EB029E
:100CD0004981842F912F0E942709812F90E00E9443
:100CE00027092A81822F902F0E942709802F90E0C8
:100CF0000E94270981E00F900F90DF91CF911F9103
:100D00000F910C94CA088F929F92AF92BF92CF928C
:100D1000DF92EF92FF921F93CF93DF937C011092AB
:100D2000B3011092B2011092DC011092FE010E94F8
:100D30007102E701EB961092DC011092FE010E9415
:100D4000710240E060E0CE010E94D50380E496E0AD
:100D5000F7019283818383AD91E09093DB018093CF
:100D6000FD011092DC011092FE0160E08CE992E03E
:100D70000E94EB0281E00E94CA08F70183AD9091C6
:100D8000DA019111FCCF91E09093DA019093D901AF
:100D90002FEF2093D8011092D7011092D601909393
:100DA000B5019091B501880F892B8093B501809191
:100DB000B401813061F41092B4018091B501809347
:100DC000BB008091BC0083FDF8CF85EC01C085EEAF
:100DD0008093BC008091DA018130E1F38091D701EA
:100DE000811103C08091D70101C081E0A6EBB1E081
:100DF00022E931E0F9019E2F921B981718F49D917A
:100E00009193F9CF1092B3018093B2018CE992E0F3
:100E10000E949F02182F482F4F76406160E0CE015C
:100E20000E94D50343E06EEFCE010E94D503412F0F
:100E300060E0CE010E94D5030E941A024B015C01C2
:100E400085E0C82ED12CE12CF12C0E941A02DC0185
:100E5000CB0188199909AA09BB09883E9340A105CD
:100E6000B10558F0F1E0CF1AD108E108F10828EEF9
:100E7000820E23E0921EA11CB11CC114D104E10416
:100E8000F10419F7412F416A60E0CE010E94D503B9
:100E900010E020E030E040E050E0612FCE010E9401
:100EA00048061F5F1031A9F7DF91CF911F91FF9086
:100EB000EF90DF90CF90BF90AF909F908F9008956C
:100EC0009A01CB96211540E1340728F020E030E06C
:100ED00040E050E102C040E050E00C944806CF935F
:100EE000DF93FC01AC014D5F5F4FEC0128964B9600
:100EF000DA0114961C921E92139718829E012350B9
:100F00003109D9011C9221503109D9011C92DA0111
:100F10001C924A5F5F4F26964817590749F717A258
:100F200012A616A215A217AA12AE16AA15AA6083B7
:100F300063AFDF91CF9108951F920F920FB60F927A
:100F400011242F933F934F935F936F937F938F93CE
:100F50009F93AF93BF93EF93FF938091B900887FE6
:100F6000803609F49CC068F5883209F45BC090F4BF
:100F7000803109F454C038F4882309F4F6C088306D
:100F800009F44DC0F6C0883109F44CC0803209F430
:100F90005DC0EFC0803409F468C048F4803309F4C0
:100FA00055C0883309F0E5C08093D801D8C080359A
:100FB00009F44FC0883509F45DC0883409F0D9C000
:100FC000D6C0883909F4C7C0A8F4883709F467C0C7
:100FD00038F4883609F463C0803709F460C0C9C0AA
:100FE000883809F4B8C0803909F45FC0803809F046
:100FF000C0C05BC0803B09F486C038F4803A09F475
:1010000066C0883A09F47FC0B4C0803C09F4A7C028
:10101000883C09F4A4C0883B09F48AC0AAC0809126
:10102000B50110C09091D7018091D601981770F545
:10103000E091D70181E08E0F8093D701F0E0EA5470
:10104000FE4F80818093BB0085EC86C08093D801E1
:101050008EC0E091D70181E08E0F8093D7018091FF
:10106000BB00F0E0EA54FE4F80839091D70180915D
:10107000D6016EC0E091D70181E08E0F8093D70139
:101080008091BB00F0E0EA54FE4F80838091D9014B
:1010900081116DC081E08093B40184EA61C083E076
:1010A0008093DA0110928601CFCF80918601803241
:1010B00008F051C0E091860181E08E0F8093860197
:1010C0008091BB00F0E0EA59FE4F8083BDCF85ECF4
:1010D0008093BC001092DA0180918601803230F456
:1010E000E0918601F0E0EA59FE4F1082609186019E
:1010F00070E0E0916401F091650186E691E0099568
:101100001092860136C084E08093DA011092630168
:1011100010926201E0916001F09161010995809166
:101120006201811105C081E080936201109240014B
:10113000E091630181E08E0F80936301F0E0E05C59
:10114000FE4F80818093BB0090916301809162018A
:10115000981708F479CF85E88093BC000AC085EC25
:101160008093BC001092DA0104C01092D8010E9452
:101170003F02FF91EF91BF91AF919F918F917F912E
:101180006F915F914F913F912F910F900FBE0F90F4
:101190001F901895382F2091FE019091FD0121326A
:1011A00008F049C08091DA018111FCCF42E0409300
:1011B000DA013093D9013FEF3093D8011092D70173
:1011C0002093D601ADEDB1E046EB51E0FA013E2FA0
:1011D000341B321718F43D913193F9CF1092B501B9
:1011E0002091B501990F922B9093B5019091B40184
:1011F000913061F41092B4019091B5019093BB00CD
:101200009091BC0093FDF8CF95EC01C095EE9093C2
:10121000BC009091DA019230E1F39091D8019F3FA8
:1012200079F08091D801803241F08091D8018033EB
:1012300031F084E005C081E003C082E001C083E0BA
:101240001092DC011092FE011092DB010895682FCC
:101250008CE992E00C94EB021F93CF93DF93EC01A7
:101260008C8583FD06C0613011F4885F07C088500B
:1012700005C0613011F4805F01C080518C878C857E
:101280008F738C8740EF5FE06C818D859E850E9417
:10129000600740EF5FE06F818D859E850E9460074B
:1012A000EC85E695E695E695E83028F4F0E0E05028
:1012B000FF4F108101C010E08D859E8520E030E059
:1012C00010FF03C040E050E102C040E050E06E81FA
:1012D000CB960E9448068D859E8520E030E011FF68
:1012E00003C040E050E102C040E050E06885CB968A
:1012F0000E9448068D859E8520E030E012FF03C0E5
:1013000040E050E102C040E050E06D81CB960E9489
:1013100048068D859E8520E030E013FF03C040E045
:1013200050E102C040E050E06985CB960E9448063B
:101330008C85DF91CF911F910895CF93DF9300D0DB
:1013400000D0CDB7DEB7789484B5826084BD84B513
:10135000816084BD85B5826085BD85B5816085BDB0
:1013600080916E00816080936E0010928100809168
:1013700081008260809381008091810081608093F0
:101380008100809180008160809380008091B10015
:1013900084608093B1008091B00081608093B00040
:1013A00080917A00846080937A0080917A008260D4
:1013B00080937A0080917A00816080937A00809196
:1013C0007A00806880937A001092C100E0910F0249
:1013D000F091100282E08083E0910B02F0910C0208
:1013E0001082E0910D02F0910E028FEC808310923A
:1013F0001702E0911302F091140286E08083E091DD
:101400001102F0911202808180618083E0911102CB
:10141000F0911202808188608083E0911102F09146
:101420001202808180688083E0911102F0911202A3
:1014300080818F7D80838FE093E00E94830683ED1F
:1014400092E00E9483068CE08093B80088EC482EDE
:10145000512C612C712C8FEF91E00E942401181601
:1014600019060CF098C00E948200FC0197FD11C083
:101470008D32910591F0C0970A9778F0E091FF01C5
:10148000F09100020284F385E02D8FEF91E0099541
:10149000EACFC12CD12C76012DC020E030E0A9018B
:1014A00010E0E130F10509F024C1E091FF01F09175
:1014B00000020284F385E02D8FEF91E029833A83C7
:1014C0004B835C8309950E948200FC01C0972981AF
:1014D0003A814B815C810A9720F3E130F10509F3F1
:1014E000112309F425C1CC24DD247601C21AD30AC4
:1014F000E40AF50AD0928D01C0928C0180E090E060
:10150000AAE7B4E48093BF029093C002A093C10203
:10151000B093C2020E9454050D2C000CEE08FF0887
:10152000C701B6010E94000D6093BB027093BC021C
:101530008093BD029093BE020E9454054092B30274
:101540005092B4026092B5027092B6020E945405A5
:10155000F7FE14C0E091FF01F09100020190F081CC
:10156000E02D6DE28FEF91E0099566277727CB019B
:101570006C197D098E099F094AE003C04AE0C70142
:10158000B6010E94F60342E050E06CE371E08FEF99
:1015900091E00E94C8008091B3029091B402A091A2
:1015A000B502B091B6024091AF025091B002609185
:1015B000B1027091B20284179507A607B70789F4A4
:1015C000B095A095909581959F4FAF4FBF4F809359
:1015D000B3029093B402A093B502B093B6020E94F6
:1015E00054054091B3025091B4026091B5027091DC
:1015F000B6028091AF029091B002A091B102B09179
:10160000B202481759076A077B0709F46FC08FB702
:10161000F894C0908E01D0908F01E0909001F090EE
:1016200091018FBF4091C3025091C4026091C502E5
:101630007091C6028091C7029091C802A091C90220
:10164000B091CA02840F951FA61FB71F8C159D0568
:10165000AE05BF0508F04AC08090B7029090B8026E
:10166000A090B902B090BA0220E030E0A901C50113
:10167000B4010E94450F181664F48091AF02909156
:10168000B002A091B102B091B2020196A11DB11DAC
:1016900014C020E030E0A901C501B4010E94F90C9A
:1016A00087FF13C08091AF029091B002A091B10268
:1016B000B091B2020197A109B1098093AF02909352
:1016C000B002A093B102B093B2026091AF02637016
:1016D00088EA92E00E94AE03C092C702D092C8028C
:1016E000E092C902F092CA020E9454050E94C4010D
:1016F000B2CEED32F105D1F0CF01C0970A9708F0D4
:10170000D4CEAAE0B0E00E941D0E6F01FF0FEE08DC
:10171000FF08DC01CB018C0D9D1DAE1DBF1D9C0182
:10172000AD012053310941095109BFCE11E0BDCEB1
:1017300069017A01DFCE109202021092010288EE56
:1017400093E0A0E0B0E08093030290930402A093A2
:101750000502B09306022CE031E0309300022093A2
:10176000FF0125EC30E030930C0220930B0224ECB7
:1017700030E030930E0220930D0220EC30E03093E5
:10178000100220930F0221EC30E0309312022093DC
:10179000110222EC30E0309314022093130226EC65
:1017A00030E0309316022093150210921802109226
:1017B000190210921A0210921B0210929F021092AC
:1017C0009E028093A0029093A102A093A202B093E4
:1017D000A3028EE191E090939D0280939C0261E6CA
:1017E0008FE093E00E946F0760E683ED92E00E9435
:1017F0006F078091FD02811120C01092FD0288ECDC
:1018000090E09093F9028093F80283ED92E0909338
:10181000FC028093FB0288E08093F2028DE08093CB
:10182000F5028AE08093F30289E08093F4028BE072
:101830008093F6028CE08093F7028EEE92E0909314
:10184000D2028093D10280910D03811121C081E0E9
:1018500080930D0388EC90E0909309038093080334
:1018600083ED92E090930C0380930B0382E08093CE
:10187000020387E08093050384E08093030383E001
:101880008093040385E08093060386E0809307033A
:101890008EEF92E09093D0028093CF0220E331E06C
:1018A00030934C0320934B0310924D03109252033C
:1018B0001092530310925403109255031092560342
:1018C00010925703109258031092590310925A0322
:1018D00010925B0310925C0310925D0380E090E035
:1018E000A0E8BFE380935E0390935F03A09360033F
:1018F000B09361038093620390936303A0936403A6
:10190000B093650310926603109267031092680308
:101910001092690310926A0310926B0310926C0389
:1019200010926D0310924E0310924F0310925003C9
:10193000109251034FE955E050936F0340936E03AB
:1019400048E955E050937103409370033093A90226
:101950002093A8021092AA021092AF021092B00235
:101960001092B1021092B2021092B3021092B4021D
:101970001092B5021092B6021092B7021092B802FD
:101980001092B9021092BA028093BB029093BC02EB
:10199000A093BD02B093BE028093BF029093C00299
:1019A000A093C102B093C2021092C3021092C4026B
:1019B0001092C5021092C6021092C7021092C8027D
:1019C0001092C9021092CA021092AB021092AC029D
:1019D0001092AD021092AE0281E995E09093CC0294
:1019E0008093CB028AE895E09093CE028093CD025B
:1019F00008950E943B0D08F481E00895E89409C021
:101A000097FB3EF490958095709561957F4F8F4F31
:101A10009F4F9923A9F0F92F96E9BB279395F69547
:101A2000879577956795B795F111F8CFFAF4BB0FC5
:101A300011F460FF1BC06F5F7F4F8F4F9F4F16C029
:101A4000882311F096E911C0772321F09EE8872FB3
:101A5000762F05C0662371F096E8862F70E060E06F
:101A60002AF09A95660F771F881FDAF7880F9695E8
:101A7000879597F90895990F0008550FAA0BE0E88C
:101A8000FEEF16161706E807F907C0F01216130640
:101A9000E407F50798F0621B730B840B950B39F480
:101AA0000A2661F0232B242B252B21F408950A26E6
:101AB00009F4A140A6958FEF811D811D08950E9414
:101AC000720D0C94E30D0E94D50D38F00E94DC0DD0
:101AD00020F0952311F00C94CC0D0C94D20D112410
:101AE0000C94170E0E94F40D70F3959FC1F3950F9F
:101AF00050E0551F629FF001729FBB27F00DB11D92
:101B0000639FAA27F00DB11DAA1F649F6627B00D21
:101B1000A11D661F829F2227B00DA11D621F739F0A
:101B2000B00DA11D621F839FA00D611D221F749F18
:101B30003327A00D611D231F849F600D211D822F5F
:101B4000762F6A2F11249F5750409AF0F1F0882386
:101B50004AF0EE0FFF1FBB1F661F771F881F9150B3
:101B60005040A9F79E3F510580F00C94CC0D0C9489
:101B7000170E5F3FE4F3983ED4F38695779567950B
:101B8000B795F795E7959F5FC1F7FE2B880F911DDD
:101B90009695879597F9089597F99F6780E870E083
:101BA00060E008959FEF80EC089500240A941616D3
:101BB000170618060906089500240A94121613063B
:101BC000140605060895092E0394000C11F48823C9
:101BD00052F0BB0F40F4BF2B11F460FF04C06F5FE5
:101BE0007F4F8F4F9F4F089557FD9058440F551FBB
:101BF00059F05F3F71F04795880F97FB991F61F08F
:101C00009F3F79F087950895121613061406551F05
:101C1000F2CF4695F1DF08C0161617061806991F71
:101C2000F1CF86957105610508940895E894BB2766
:101C300066277727CB0197F908950E94280EA59F64
:101C4000900DB49F900DA49F800D911D11240895B7
:101C5000A29FB001B39FC001A39F700D811D1124ED
:101C6000911DB29F700D811D1124911D0895505832
:101C7000BB27AA270E944F0E0C94E30D0E94D50D9E
:101C800038F00E94DC0D20F039F49F3F19F426F45F
:101C90000C94D20D0EF4E095E7FB0C94CC0DE92FDB
:101CA0000E94F40D58F3BA1762077307840795076B
:101CB00020F079F4A6F50C94160E0EF4E0950B2E98
:101CC000BA2FA02D0B01B90190010C01CA01A0018E
:101CD0001124FF27591B99F0593F50F4503E68F1E9
:101CE0001A16F040A22F232F342F4427585FF3CF2A
:101CF000469537952795A795F0405395C9F77EF4FB
:101D00001F16BA0B620B730B840BBAF09150A1F043
:101D1000FF0FBB1F661F771F881FC2F70EC0BA0FC9
:101D2000621F731F841F48F4879577956795B79551
:101D3000F7959E3F08F0B0CF9395880F08F099274C
:101D4000EE0F9795879508950E94B80E0C94E30DB9
:101D50000E94DC0D58F00E94D50D40F029F45F3F41
:101D600029F00C94CC0D51110C94170E0C94D20D3B
:101D70000E94F40D68F39923B1F3552391F3951B59
:101D8000550BBB27AA2762177307840738F09F5F9C
:101D90005F4F220F331F441FAA1FA9F335D00E2E09
:101DA0003AF0E0E832D091505040E695001CCAF776
:101DB0002BD0FE2F29D0660F771F881FBB1F261739
:101DC00037074807AB07B0E809F0BB0B802DBF0110
:101DD000FF2793585F4F3AF09E3F510578F00C94DF
:101DE000CC0D0C94170E5F3FE4F3983ED4F3869528
:101DF00077956795B795F7959F5FC9F7880F911D00
:101E00009695879597F90895E1E0660F771F881FEB
:101E1000BB1F621773078407BA0720F0621B730B9E
:101E2000840BBA0BEE1F88F7E09508950E94FC0D15
:101E300088F09F5798F0B92F9927B751B0F0E1F08B
:101E4000660F771F881F991F1AF0BA95C9F714C03B
:101E5000B13091F00E94160EB1E008950C94160E68
:101E6000672F782F8827B85F39F0B93FCCF3869574
:101E700077956795B395D9F73EF4909580957095D1
:101E800061957F4F8F4F9F4F08950E943B0D08F43F
:101E90008FEF089519F416F40C94D20D0C94900F52
:101EA0000E94FC0DB8F39923C9F3B6F39F57550B65
:101EB00087FF0E949E0F0024A0E640EA9001805810
:101EC0005695979528F4805C660F771F881F20F041
:101ED00026173707480730F4621B730B840B202941
:101EE00031294A2BA69517940794202531254A2796
:101EF00058F7660F771F881F20F026173707480707
:101F000030F4620B730B840B200D311D411DA09525
:101F100081F7B901842F9158880F96958795089578
:101F20009F3F31F0915020F4879577956795B7954D
:101F3000880F911D9695879597F908959150504077
:101F4000660F771F881FD2F70895A1E21A2EAA1BE9
:101F5000BB1BFD010DC0AA1FBB1FEE1FFF1FA21759
:101F6000B307E407F50720F0A21BB30BE40BF50B56
:101F7000661F771F881F991F1A9469F760957095DF
:101F8000809590959B01AC01BD01CF010895EE0FA6
:101F9000FF1F0590F491E02D099481E090E0F89402
:081FA0000C94D20FF894FFCF5E
:101FA80001030206040C0809000000005B01C800D8
:101FB800F300A20124010201160100000000EB0257
:101FC800BB021B038F02B3029F02900200000000B5
:101FD800AE039803780357031E0349040D0A000053
:00000001FF
